{
  "_format": "hh-sol-artifact-1",
  "contractName": "Bank",
  "sourceName": "contracts/Bank.sol",
  "abi": [
    {
      "inputs": [
        {
          "internalType": "address",
          "name": "account",
          "type": "address"
        }
      ],
      "name": "balanceOf",
      "outputs": [
        {
          "internalType": "uint256",
          "name": "",
          "type": "uint256"
        }
      ],
      "stateMutability": "view",
      "type": "function"
    },
    {
      "inputs": [],
      "name": "deposit",
      "outputs": [],
      "stateMutability": "payable",
      "type": "function"
    },
    {
      "inputs": [],
      "name": "getTransactions",
      "outputs": [
        {
          "components": [
            {
              "internalType": "address",
              "name": "user",
              "type": "address"
            },
            {
              "internalType": "uint256",
              "name": "amount",
              "type": "uint256"
            },
            {
              "internalType": "bool",
              "name": "isDeposit",
              "type": "bool"
            }
          ],
          "internalType": "struct Bank.Transaction[]",
          "name": "",
          "type": "tuple[]"
        }
      ],
      "stateMutability": "view",
      "type": "function"
    },
    {
      "inputs": [
        {
          "internalType": "uint256",
          "name": "amount",
          "type": "uint256"
        }
      ],
      "name": "withdraw",
      "outputs": [],
      "stateMutability": "nonpayable",
      "type": "function"
    }
  ],
  "bytecode": "0x608060405234801561001057600080fd5b506109a8806100206000396000f3fe60806040526004361061003f5760003560e01c80632e1a7d4d1461004457806370a082311461006d57806383920e90146100aa578063d0e30db0146100d5575b600080fd5b34801561005057600080fd5b5061006b6004803603810190610066919061060e565b6100df565b005b34801561007957600080fd5b50610094600480360381019061008f9190610699565b61030e565b6040516100a191906106d5565b60405180910390f35b3480156100b657600080fd5b506100bf610356565b6040516100cc919061081a565b60405180910390f35b6100dd61046d565b005b806000803373ffffffffffffffffffffffffffffffffffffffff1673ffffffffffffffffffffffffffffffffffffffff168152602001908152602001600020541015610160576040517f08c379a000000000000000000000000000000000000000000000000000000000815260040161015790610899565b60405180910390fd5b806000803373ffffffffffffffffffffffffffffffffffffffff1673ffffffffffffffffffffffffffffffffffffffff16815260200190815260200160002060008282546101ae91906108e8565b925050819055503373ffffffffffffffffffffffffffffffffffffffff166108fc829081150290604051600060405180830381858888f193505050501580156101fb573d6000803e3d6000fd5b50600160003373ffffffffffffffffffffffffffffffffffffffff1673ffffffffffffffffffffffffffffffffffffffff16815260200190815260200160002060405180606001604052803373ffffffffffffffffffffffffffffffffffffffff16815260200183815260200160001515815250908060018154018082558091505060019003906000526020600020906003020160009091909190915060008201518160000160006101000a81548173ffffffffffffffffffffffffffffffffffffffff021916908373ffffffffffffffffffffffffffffffffffffffff1602179055506020820151816001015560408201518160020160006101000a81548160ff021916908315150217905550505050565b60008060008373ffffffffffffffffffffffffffffffffffffffff1673ffffffffffffffffffffffffffffffffffffffff168152602001908152602001600020549050919050565b6060600160003373ffffffffffffffffffffffffffffffffffffffff1673ffffffffffffffffffffffffffffffffffffffff168152602001908152602001600020805480602002602001604051908101604052809291908181526020016000905b8282101561046457838290600052602060002090600302016040518060600160405290816000820160009054906101000a900473ffffffffffffffffffffffffffffffffffffffff1673ffffffffffffffffffffffffffffffffffffffff1673ffffffffffffffffffffffffffffffffffffffff168152602001600182015481526020016002820160009054906101000a900460ff161515151581525050815260200190600101906103b7565b50505050905090565b346000803373ffffffffffffffffffffffffffffffffffffffff1673ffffffffffffffffffffffffffffffffffffffff16815260200190815260200160002060008282546104bb919061091c565b92505081905550600160003373ffffffffffffffffffffffffffffffffffffffff1673ffffffffffffffffffffffffffffffffffffffff16815260200190815260200160002060405180606001604052803373ffffffffffffffffffffffffffffffffffffffff16815260200134815260200160011515815250908060018154018082558091505060019003906000526020600020906003020160009091909190915060008201518160000160006101000a81548173ffffffffffffffffffffffffffffffffffffffff021916908373ffffffffffffffffffffffffffffffffffffffff1602179055506020820151816001015560408201518160020160006101000a81548160ff0219169083151502179055505050565b600080fd5b6000819050919050565b6105eb816105d8565b81146105f657600080fd5b50565b600081359050610608816105e2565b92915050565b600060208284031215610624576106236105d3565b5b6000610632848285016105f9565b91505092915050565b600073ffffffffffffffffffffffffffffffffffffffff82169050919050565b60006106668261063b565b9050919050565b6106768161065b565b811461068157600080fd5b50565b6000813590506106938161066d565b92915050565b6000602082840312156106af576106ae6105d3565b5b60006106bd84828501610684565b91505092915050565b6106cf816105d8565b82525050565b60006020820190506106ea60008301846106c6565b92915050565b600081519050919050565b600082825260208201905092915050565b6000819050602082019050919050565b6107258161065b565b82525050565b610734816105d8565b82525050565b60008115159050919050565b61074f8161073a565b82525050565b60608201600082015161076b600085018261071c565b50602082015161077e602085018261072b565b5060408201516107916040850182610746565b50505050565b60006107a38383610755565b60608301905092915050565b6000602082019050919050565b60006107c7826106f0565b6107d181856106fb565b93506107dc8361070c565b8060005b8381101561080d5781516107f48882610797565b97506107ff836107af565b9250506001810190506107e0565b5085935050505092915050565b6000602082019050818103600083015261083481846107bc565b905092915050565b600082825260208201905092915050565b7f496e73756666696369656e742062616c616e6365000000000000000000000000600082015250565b600061088360148361083c565b915061088e8261084d565b602082019050919050565b600060208201905081810360008301526108b281610876565b9050919050565b7f4e487b7100000000000000000000000000000000000000000000000000000000600052601160045260246000fd5b60006108f3826105d8565b91506108fe836105d8565b925082821015610911576109106108b9565b5b828203905092915050565b6000610927826105d8565b9150610932836105d8565b9250827fffffffffffffffffffffffffffffffffffffffffffffffffffffffffffffffff03821115610967576109666108b9565b5b82820190509291505056fea2646970667358221220043954ecf7f78ca5d115e2f0a2d34054515cdef3b0fcd43806f4d1851676baba64736f6c63430008090033",
  "linkReferences": {},
  "deployedLinkReferences": {}
}